:020000020000fc
:0100000001fe
:0100010002fc
:0100020003fa
:0100030002fa
:0100040003f8
:0100050003f7
:0100060000f9
:0100070002f6
:0100080000f7
:0100090000f6
:01000a0000f5
:01000b0000f4
:01000c0001f2
:01000d0003ef
:01000e0003ee
:01000f0003ed
:0100100003ec
:0100110000ee
:0100120000ed
:0100130000ec
:0100140001ea
:0100150000ea
:0100160003e6
:0100170003e5
:0100180001e6
:0100190000e6
:01001a0001e4
:01001b0003e1
:01001c0001e2
:01001d0001e1
:01001e0001e0
:01001f0003dd
:0100200000df
:0100210000de
:0100220002db
:0100230001db
:0100240001da
:0100250002d8
:0100260002d7
:0100270000d8
:0100280001d6
:0100290000d6
:01002a0003d2
:01002b0000d4
:01002c0003d0
:01002d0001d1
:01002e0002cf
:01002f0000d0
:0100300003cc
:0100310003cb
:0100320001cc
:0100330000cc
:0100340000cb
:0100350000ca
:0100360002c7
:0100370002c6
:0100380001c6
:0100390000c6
:01003a0002c3
:01003b0003c1
:01003c0003c0
:01003d0000c2
:01003e0001c0
:01003f0002be
:0100400001be
:0100410002bc
:0100420002bb
:0100430001bb
:0100440003b8
:0100450002b8
:0100460001b8
:0100470003b5
:0100480003b4
:0100490002b4
:01004a0001b4
:01004b0001b3
:01004c0002b1
:01004d0000b2
:01004e0000b1
:01004f0000b0
:0100500003ac
:0100510001ad
:0100520002ab
:0100530001ab
:0100540002a9
:0100550002a8
:0100560001a8
:0100570000a8
:0100580000a7
:0100590000a6
:01005a0001a4
:01005b0001a3
:01005c0000a3
:01005d0002a0
:01005e0001a0
:01005f00029e
:01006000009f
:01006100039b
:01006200039a
:010063000399
:010064000398
:010065000199
:010066000396
:010067000197
:010068000097
:010069000294
:01006a000095
:01006b000094
:01006c000093
:01006d000290
:01006e00038e
:01006f00018f
:01007000018e
:01007100018d
:01007200028b
:01007300018b
:010074000289
:010075000387
:010076000386
:010077000385
:010078000384
:010079000284
:01007a000283
:01007b000183
:01007c000281
:01007d00037f
:01007e000180
:01007f00027e
:01008000017e
:01008100017d
:01008200027b
:01008300027a
:010084000279
:010085000179
:010086000277
:010087000276
:010088000275
:010089000373
:01008a000174
:01008b000173
:01008c000370
:01008d00036f
:01008e00026f
:01008f00016f
:01009000036c
:01009100036b
:01009200006d
:01009300026a
:01009400016a
:010095000169
:010096000168
:010097000365
:010098000265
:010099000066
:01009a000263
:01009b000262
:01009c000360
:01009d000161
:01009e000160
:01009f00025e
:0100a000025d
:0100a100035b
:0100a200025b
:0100a3000359
:0100a400015a
:0100a5000357
:0100a6000356
:0100a7000157
:0100a8000354
:0100a9000254
:0100aa000154
:0100ab000054
:0100ac000152
:0100ad000052
:0100ae00034e
:0100af00014f
:0100b000014e
:0100b100024c
:0100b200014c
:0100b300014b
:0100b400004b
:0100b5000248
:0100b6000148
:0100b7000246
:0100b8000245
:0100b9000145
:0100ba000144
:0100bb000242
:0100bc000241
:0100bd000240
:0100be000041
:0100bf00013f
:0100c000033c
:0100c100013d
:0100c200003d
:0100c3000339
:0100c4000338
:0100c5000337
:0100c6000138
:0100c7000236
:0100c8000037
:0100c9000333
:0100ca000035
:0100cb000034
:0100cc000132
:0100cd000032
:0100ce000031
:0100cf00032d
:0100d000032c
:0100d100012d
:0100d200032a
:0100d300002c
:0100d4000328
:0100d5000327
:0100d6000029
:0100d7000028
:0100d8000225
:0100d9000125
:0100da000124
:0100db000123
:0100dc000221
:0100dd000220
:0100de000120
:0100df000020
:0100e000011e
:0100e100021c
:0100e200011c
:0100e300021a
:0100e400011a
:0100e5000218
:0100e6000316
:0100e7000018
:0100e8000314
:0100e9000115
:0100ea000114
:0100eb000311
:0100ec000112
:0100ed000012
:0100ee00020f
:0100ef00010f
:0100f000030c
:0100f100010d
:0100f200030a
:0100f3000309
:0100f400010a
:0100f5000208
:0100f6000108
:0100f7000107
:0100f8000007
:0100f9000105
:0100fa000302
:0100fb000301
:0100fc000201
:0100fd000200
:0100fe000100
:0100ff0002fe
:00000001FF
